{
  "address": "0x5FbDB2315678afecb367f032d93F642f64180aa3",
  "abi": [
    {
      "inputs": [
        {
          "internalType": "uint256",
          "name": "fees",
          "type": "uint256"
        }
      ],
      "stateMutability": "nonpayable",
      "type": "constructor"
    },
    {
      "inputs": [],
      "name": "NftMarketplace__AlreadyListed",
      "type": "error"
    },
    {
      "inputs": [],
      "name": "NftMarketplace__NoProceeds",
      "type": "error"
    },
    {
      "inputs": [],
      "name": "NftMarketplace__NotApprovedForMarketplace",
      "type": "error"
    },
    {
      "inputs": [],
      "name": "NftMarketplace__NotListed",
      "type": "error"
    },
    {
      "inputs": [],
      "name": "NftMarketplace__NotMarketplaceOwner",
      "type": "error"
    },
    {
      "inputs": [],
      "name": "NftMarketplace__NotNftOwner",
      "type": "error"
    },
    {
      "inputs": [],
      "name": "NftMarketplace__PriceMustBeAboveZero",
      "type": "error"
    },
    {
      "inputs": [],
      "name": "NftMarketplace__PriceNotMet",
      "type": "error"
    },
    {
      "inputs": [],
      "name": "NftMarketplace__TransferFailed",
      "type": "error"
    },
    {
      "anonymous": false,
      "inputs": [
        {
          "indexed": true,
          "internalType": "address",
          "name": "nftAddress",
          "type": "address"
        },
        {
          "indexed": true,
          "internalType": "uint256",
          "name": "tokenId",
          "type": "uint256"
        },
        {
          "indexed": false,
          "internalType": "address",
          "name": "buyer",
          "type": "address"
        },
        {
          "indexed": false,
          "internalType": "uint256",
          "name": "price",
          "type": "uint256"
        }
      ],
      "name": "ListingBought",
      "type": "event"
    },
    {
      "anonymous": false,
      "inputs": [
        {
          "indexed": true,
          "internalType": "address",
          "name": "nftAddress",
          "type": "address"
        },
        {
          "indexed": true,
          "internalType": "uint256",
          "name": "tokenId",
          "type": "uint256"
        },
        {
          "indexed": true,
          "internalType": "address",
          "name": "seller",
          "type": "address"
        }
      ],
      "name": "ListingCancelled",
      "type": "event"
    },
    {
      "anonymous": false,
      "inputs": [
        {
          "indexed": true,
          "internalType": "address",
          "name": "nftAddress",
          "type": "address"
        },
        {
          "indexed": true,
          "internalType": "uint256",
          "name": "tokenId",
          "type": "uint256"
        },
        {
          "indexed": false,
          "internalType": "address",
          "name": "seller",
          "type": "address"
        },
        {
          "indexed": false,
          "internalType": "uint256",
          "name": "listPrice",
          "type": "uint256"
        }
      ],
      "name": "ListingCreated",
      "type": "event"
    },
    {
      "anonymous": false,
      "inputs": [
        {
          "indexed": true,
          "internalType": "address",
          "name": "nftAddress",
          "type": "address"
        },
        {
          "indexed": true,
          "internalType": "uint256",
          "name": "tokenId",
          "type": "uint256"
        },
        {
          "indexed": false,
          "internalType": "address",
          "name": "seller",
          "type": "address"
        },
        {
          "indexed": false,
          "internalType": "uint256",
          "name": "listPrice",
          "type": "uint256"
        }
      ],
      "name": "ListingUpdated",
      "type": "event"
    },
    {
      "inputs": [
        {
          "internalType": "address",
          "name": "nftAddress",
          "type": "address"
        },
        {
          "internalType": "uint256",
          "name": "tokenId",
          "type": "uint256"
        }
      ],
      "name": "buyListing",
      "outputs": [],
      "stateMutability": "payable",
      "type": "function"
    },
    {
      "inputs": [
        {
          "internalType": "address",
          "name": "nftAddress",
          "type": "address"
        },
        {
          "internalType": "uint256",
          "name": "tokenId",
          "type": "uint256"
        }
      ],
      "name": "cancelListing",
      "outputs": [],
      "stateMutability": "nonpayable",
      "type": "function"
    },
    {
      "inputs": [
        {
          "internalType": "address",
          "name": "nftAddress",
          "type": "address"
        },
        {
          "internalType": "uint256",
          "name": "tokenId",
          "type": "uint256"
        },
        {
          "internalType": "uint256",
          "name": "price",
          "type": "uint256"
        }
      ],
      "name": "createListing",
      "outputs": [],
      "stateMutability": "nonpayable",
      "type": "function"
    },
    {
      "inputs": [
        {
          "internalType": "address",
          "name": "nftAddress",
          "type": "address"
        },
        {
          "internalType": "uint256",
          "name": "tokenId",
          "type": "uint256"
        }
      ],
      "name": "getListing",
      "outputs": [
        {
          "components": [
            {
              "internalType": "address",
              "name": "seller",
              "type": "address"
            },
            {
              "internalType": "uint256",
              "name": "listPrice",
              "type": "uint256"
            }
          ],
          "internalType": "struct NftMarketplace.Listing",
          "name": "",
          "type": "tuple"
        }
      ],
      "stateMutability": "view",
      "type": "function"
    },
    {
      "inputs": [],
      "name": "getMarketplaceFees",
      "outputs": [
        {
          "internalType": "uint256",
          "name": "",
          "type": "uint256"
        }
      ],
      "stateMutability": "view",
      "type": "function"
    },
    {
      "inputs": [],
      "name": "getOwner",
      "outputs": [
        {
          "internalType": "address",
          "name": "",
          "type": "address"
        }
      ],
      "stateMutability": "view",
      "type": "function"
    },
    {
      "inputs": [
        {
          "internalType": "address",
          "name": "seller",
          "type": "address"
        }
      ],
      "name": "getProceeds",
      "outputs": [
        {
          "internalType": "uint256",
          "name": "",
          "type": "uint256"
        }
      ],
      "stateMutability": "view",
      "type": "function"
    },
    {
      "inputs": [
        {
          "internalType": "address",
          "name": "",
          "type": "address"
        },
        {
          "internalType": "address",
          "name": "",
          "type": "address"
        },
        {
          "internalType": "uint256",
          "name": "",
          "type": "uint256"
        },
        {
          "internalType": "bytes",
          "name": "",
          "type": "bytes"
        }
      ],
      "name": "onERC721Received",
      "outputs": [
        {
          "internalType": "bytes4",
          "name": "",
          "type": "bytes4"
        }
      ],
      "stateMutability": "nonpayable",
      "type": "function"
    },
    {
      "inputs": [
        {
          "internalType": "uint256",
          "name": "newFees",
          "type": "uint256"
        }
      ],
      "name": "setMarketplaceFees",
      "outputs": [],
      "stateMutability": "nonpayable",
      "type": "function"
    },
    {
      "inputs": [
        {
          "internalType": "address",
          "name": "nftAddress",
          "type": "address"
        },
        {
          "internalType": "uint256",
          "name": "tokenId",
          "type": "uint256"
        },
        {
          "internalType": "uint256",
          "name": "newPrice",
          "type": "uint256"
        }
      ],
      "name": "updateListing",
      "outputs": [],
      "stateMutability": "nonpayable",
      "type": "function"
    },
    {
      "inputs": [],
      "name": "withdrawProceeds",
      "outputs": [],
      "stateMutability": "nonpayable",
      "type": "function"
    }
  ],
  "transactionHash": "0x96c01b22b6b843f46192d42a18abf03b553eebe30572dfb3f9b8b7334eab4a7f",
  "args": [
    2
  ],
  "numDeployments": 1,
  "solcInputHash": "9805edd3372914157e81c9f1e73bc81b",
  "bytecode": "0x60a06040523480156200001157600080fd5b5060405162001d2738038062001d278339818101604052810190620000379190620000c1565b60016000819055503373ffffffffffffffffffffffffffffffffffffffff1660808173ffffffffffffffffffffffffffffffffffffffff16815250508060038190555050620000f3565b600080fd5b6000819050919050565b6200009b8162000086565b8114620000a757600080fd5b50565b600081519050620000bb8162000090565b92915050565b600060208284031215620000da57620000d962000081565b5b6000620000ea84828501620000aa565b91505092915050565b608051611c0a6200011d6000396000818161051401528181610c670152610e0e0152611c0a6000f3fe60806040526004361061009c5760003560e01c806388700d1c1161006457806388700d1c1461018b578063893d20e8146101c85780639038e693146101f35780639e2fe77f1461020a578063b2ddee0614610233578063f772adf11461025c5761009c565b80630c97fa64146100a1578063150b7a02146100bd57806324780c56146100fa57806330cfeda91461012357806354e1e9a614610160575b600080fd5b6100bb60048036038101906100b6919061156e565b610285565b005b3480156100c957600080fd5b506100e460048036038101906100df91906116f4565b610703565b6040516100f191906117b2565b60405180910390f35b34801561010657600080fd5b50610121600480360381019061011c91906117cd565b610717565b005b34801561012f57600080fd5b5061014a60048036038101906101459190611820565b610b45565b604051610157919061185c565b60405180910390f35b34801561016c57600080fd5b50610175610b8e565b604051610182919061185c565b60405180910390f35b34801561019757600080fd5b506101b260048036038101906101ad919061156e565b610b98565b6040516101bf91906118c4565b60405180910390f35b3480156101d457600080fd5b506101dd610c63565b6040516101ea91906118ee565b60405180910390f35b3480156101ff57600080fd5b50610208610c8b565b005b34801561021657600080fd5b50610231600480360381019061022c9190611909565b610df5565b005b34801561023f57600080fd5b5061025a6004803603810190610255919061156e565b610e84565b005b34801561026857600080fd5b50610283600480360381019061027e91906117cd565b611165565b005b81816000600160008473ffffffffffffffffffffffffffffffffffffffff1673ffffffffffffffffffffffffffffffffffffffff16815260200190815260200160002060008381526020019081526020016000206040518060400160405290816000820160009054906101000a900473ffffffffffffffffffffffffffffffffffffffff1673ffffffffffffffffffffffffffffffffffffffff1673ffffffffffffffffffffffffffffffffffffffff16815260200160018201548152505090506000816020015111610384576040517ffa60e3ec00000000000000000000000000000000000000000000000000000000815260040160405180910390fd5b61038c61143d565b6000600160008773ffffffffffffffffffffffffffffffffffffffff1673ffffffffffffffffffffffffffffffffffffffff16815260200190815260200160002060008681526020019081526020016000206040518060400160405290816000820160009054906101000a900473ffffffffffffffffffffffffffffffffffffffff1673ffffffffffffffffffffffffffffffffffffffff1673ffffffffffffffffffffffffffffffffffffffff168152602001600182015481525050905060008160200151905080341461048d576040517fb37afd4700000000000000000000000000000000000000000000000000000000815260040160405180910390fd5b600060646003548361049f9190611965565b6104a991906119d6565b905080826104b79190611a07565b60026000856000015173ffffffffffffffffffffffffffffffffffffffff1673ffffffffffffffffffffffffffffffffffffffff16815260200190815260200160002060008282546105099190611a3b565b9250508190555060007f000000000000000000000000000000000000000000000000000000000000000073ffffffffffffffffffffffffffffffffffffffff168260405161055690611aa0565b60006040518083038185875af1925050503d8060008114610593576040519150601f19603f3d011682016040523d82523d6000602084013e610598565b606091505b50509050806105d3576040517fa05884ba00000000000000000000000000000000000000000000000000000000815260040160405180910390fd5b6000600160008b73ffffffffffffffffffffffffffffffffffffffff1673ffffffffffffffffffffffffffffffffffffffff16815260200190815260200160002060008a8152602001908152602001600020600101819055508873ffffffffffffffffffffffffffffffffffffffff166342842e0e8560000151338b6040518463ffffffff1660e01b815260040161066d93929190611ab5565b600060405180830381600087803b15801561068757600080fd5b505af115801561069b573d6000803e3d6000fd5b50505050878973ffffffffffffffffffffffffffffffffffffffff167f23335dde04691cafb231b462c88344faacfc195d9f3c004381adf8c849d8927133866040516106e8929190611aec565b60405180910390a3505050506106fc61148c565b5050505050565b600063150b7a0260e01b9050949350505050565b82826000600160008473ffffffffffffffffffffffffffffffffffffffff1673ffffffffffffffffffffffffffffffffffffffff16815260200190815260200160002060008381526020019081526020016000206040518060400160405290816000820160009054906101000a900473ffffffffffffffffffffffffffffffffffffffff1673ffffffffffffffffffffffffffffffffffffffff1673ffffffffffffffffffffffffffffffffffffffff1681526020016001820154815250509050600081602001511115610817576040517f0853301a00000000000000000000000000000000000000000000000000000000815260040160405180910390fd5b8585600082905060008173ffffffffffffffffffffffffffffffffffffffff16636352211e846040518263ffffffff1660e01b8152600401610859919061185c565b602060405180830381865afa158015610876573d6000803e3d6000fd5b505050506040513d601f19601f8201168201806040525081019061089a9190611b2a565b90503373ffffffffffffffffffffffffffffffffffffffff168173ffffffffffffffffffffffffffffffffffffffff1614610901576040517f436a035d00000000000000000000000000000000000000000000000000000000815260040160405180910390fd5b6000881161093b576040517f096d7ecf00000000000000000000000000000000000000000000000000000000815260040160405180910390fd5b3073ffffffffffffffffffffffffffffffffffffffff168a73ffffffffffffffffffffffffffffffffffffffff1663081812fc8b6040518263ffffffff1660e01b815260040161098b919061185c565b602060405180830381865afa1580156109a8573d6000803e3d6000fd5b505050506040513d601f19601f820116820180604052508101906109cc9190611b2a565b73ffffffffffffffffffffffffffffffffffffffff1614610a19576040517f13e7d28d00000000000000000000000000000000000000000000000000000000815260040160405180910390fd5b60405180604001604052803373ffffffffffffffffffffffffffffffffffffffff16815260200189815250600160008c73ffffffffffffffffffffffffffffffffffffffff1673ffffffffffffffffffffffffffffffffffffffff16815260200190815260200160002060008b815260200190815260200160002060008201518160000160006101000a81548173ffffffffffffffffffffffffffffffffffffffff021916908373ffffffffffffffffffffffffffffffffffffffff16021790555060208201518160010155905050888a73ffffffffffffffffffffffffffffffffffffffff167fd061156af97cd0d4f446110c8e476140c682158f5621e4bd532b4c5b2e84d125338b604051610b31929190611aec565b60405180910390a350505050505050505050565b6000600260008373ffffffffffffffffffffffffffffffffffffffff1673ffffffffffffffffffffffffffffffffffffffff168152602001908152602001600020549050919050565b6000600354905090565b610ba0611496565b600160008473ffffffffffffffffffffffffffffffffffffffff1673ffffffffffffffffffffffffffffffffffffffff16815260200190815260200160002060008381526020019081526020016000206040518060400160405290816000820160009054906101000a900473ffffffffffffffffffffffffffffffffffffffff1673ffffffffffffffffffffffffffffffffffffffff1673ffffffffffffffffffffffffffffffffffffffff168152602001600182015481525050905092915050565b60007f0000000000000000000000000000000000000000000000000000000000000000905090565b6000600260003373ffffffffffffffffffffffffffffffffffffffff1673ffffffffffffffffffffffffffffffffffffffff16815260200190815260200160002054905060008111610d09576040517f668a7c4200000000000000000000000000000000000000000000000000000000815260040160405180910390fd5b6000600260003373ffffffffffffffffffffffffffffffffffffffff1673ffffffffffffffffffffffffffffffffffffffff1681526020019081526020016000208190555060003373ffffffffffffffffffffffffffffffffffffffff1682604051610d7490611aa0565b60006040518083038185875af1925050503d8060008114610db1576040519150601f19603f3d011682016040523d82523d6000602084013e610db6565b606091505b5050905080610df1576040517fa05884ba00000000000000000000000000000000000000000000000000000000815260040160405180910390fd5b5050565b3373ffffffffffffffffffffffffffffffffffffffff167f000000000000000000000000000000000000000000000000000000000000000073ffffffffffffffffffffffffffffffffffffffff1614610e7a576040517fab532fcb00000000000000000000000000000000000000000000000000000000815260040160405180910390fd5b8060038190555050565b81816000600160008473ffffffffffffffffffffffffffffffffffffffff1673ffffffffffffffffffffffffffffffffffffffff16815260200190815260200160002060008381526020019081526020016000206040518060400160405290816000820160009054906101000a900473ffffffffffffffffffffffffffffffffffffffff1673ffffffffffffffffffffffffffffffffffffffff1673ffffffffffffffffffffffffffffffffffffffff16815260200160018201548152505090506000816020015111610f83576040517ffa60e3ec00000000000000000000000000000000000000000000000000000000815260040160405180910390fd5b8484600082905060008173ffffffffffffffffffffffffffffffffffffffff16636352211e846040518263ffffffff1660e01b8152600401610fc5919061185c565b602060405180830381865afa158015610fe2573d6000803e3d6000fd5b505050506040513d601f19601f820116820180604052508101906110069190611b2a565b90503373ffffffffffffffffffffffffffffffffffffffff168173ffffffffffffffffffffffffffffffffffffffff161461106d576040517f436a035d00000000000000000000000000000000000000000000000000000000815260040160405180910390fd5b61107561143d565b600160008a73ffffffffffffffffffffffffffffffffffffffff1673ffffffffffffffffffffffffffffffffffffffff1681526020019081526020016000206000898152602001908152602001600020600080820160006101000a81549073ffffffffffffffffffffffffffffffffffffffff0219169055600182016000905550503373ffffffffffffffffffffffffffffffffffffffff16888a73ffffffffffffffffffffffffffffffffffffffff167f8526cb6d400b8a551983c99e6d6fb1775b7a0deeb5d1e39d3ee65bc59e5eac2760405160405180910390a461115a61148c565b505050505050505050565b82826000600160008473ffffffffffffffffffffffffffffffffffffffff1673ffffffffffffffffffffffffffffffffffffffff16815260200190815260200160002060008381526020019081526020016000206040518060400160405290816000820160009054906101000a900473ffffffffffffffffffffffffffffffffffffffff1673ffffffffffffffffffffffffffffffffffffffff1673ffffffffffffffffffffffffffffffffffffffff16815260200160018201548152505090506000816020015111611264576040517ffa60e3ec00000000000000000000000000000000000000000000000000000000815260040160405180910390fd5b8585600082905060008173ffffffffffffffffffffffffffffffffffffffff16636352211e846040518263ffffffff1660e01b81526004016112a6919061185c565b602060405180830381865afa1580156112c3573d6000803e3d6000fd5b505050506040513d601f19601f820116820180604052508101906112e79190611b2a565b90503373ffffffffffffffffffffffffffffffffffffffff168173ffffffffffffffffffffffffffffffffffffffff161461134e576040517f436a035d00000000000000000000000000000000000000000000000000000000815260040160405180910390fd5b60008811611388576040517f096d7ecf00000000000000000000000000000000000000000000000000000000815260040160405180910390fd5b87600160008c73ffffffffffffffffffffffffffffffffffffffff1673ffffffffffffffffffffffffffffffffffffffff16815260200190815260200160002060008b815260200190815260200160002060010181905550888a73ffffffffffffffffffffffffffffffffffffffff167f96ea5c128a842f9b8ab5b7722d9f4c101bdd6db8ca0d46b1dd7a43f5183ce51d338b604051611429929190611aec565b60405180910390a350505050505050505050565b600260005403611482576040517f08c379a000000000000000000000000000000000000000000000000000000000815260040161147990611bb4565b60405180910390fd5b6002600081905550565b6001600081905550565b6040518060400160405280600073ffffffffffffffffffffffffffffffffffffffff168152602001600081525090565b6000604051905090565b600080fd5b600080fd5b600073ffffffffffffffffffffffffffffffffffffffff82169050919050565b6000611505826114da565b9050919050565b611515816114fa565b811461152057600080fd5b50565b6000813590506115328161150c565b92915050565b6000819050919050565b61154b81611538565b811461155657600080fd5b50565b60008135905061156881611542565b92915050565b60008060408385031215611585576115846114d0565b5b600061159385828601611523565b92505060206115a485828601611559565b9150509250929050565b600080fd5b600080fd5b6000601f19601f8301169050919050565b7f4e487b7100000000000000000000000000000000000000000000000000000000600052604160045260246000fd5b611601826115b8565b810181811067ffffffffffffffff821117156116205761161f6115c9565b5b80604052505050565b60006116336114c6565b905061163f82826115f8565b919050565b600067ffffffffffffffff82111561165f5761165e6115c9565b5b611668826115b8565b9050602081019050919050565b82818337600083830152505050565b600061169761169284611644565b611629565b9050828152602081018484840111156116b3576116b26115b3565b5b6116be848285611675565b509392505050565b600082601f8301126116db576116da6115ae565b5b81356116eb848260208601611684565b91505092915050565b6000806000806080858703121561170e5761170d6114d0565b5b600061171c87828801611523565b945050602061172d87828801611523565b935050604061173e87828801611559565b925050606085013567ffffffffffffffff81111561175f5761175e6114d5565b5b61176b878288016116c6565b91505092959194509250565b60007fffffffff0000000000000000000000000000000000000000000000000000000082169050919050565b6117ac81611777565b82525050565b60006020820190506117c760008301846117a3565b92915050565b6000806000606084860312156117e6576117e56114d0565b5b60006117f486828701611523565b935050602061180586828701611559565b925050604061181686828701611559565b9150509250925092565b600060208284031215611836576118356114d0565b5b600061184484828501611523565b91505092915050565b61185681611538565b82525050565b6000602082019050611871600083018461184d565b92915050565b611880816114fa565b82525050565b61188f81611538565b82525050565b6040820160008201516118ab6000850182611877565b5060208201516118be6020850182611886565b50505050565b60006040820190506118d96000830184611895565b92915050565b6118e8816114fa565b82525050565b600060208201905061190360008301846118df565b92915050565b60006020828403121561191f5761191e6114d0565b5b600061192d84828501611559565b91505092915050565b7f4e487b7100000000000000000000000000000000000000000000000000000000600052601160045260246000fd5b600061197082611538565b915061197b83611538565b925082820261198981611538565b915082820484148315176119a05761199f611936565b5b5092915050565b7f4e487b7100000000000000000000000000000000000000000000000000000000600052601260045260246000fd5b60006119e182611538565b91506119ec83611538565b9250826119fc576119fb6119a7565b5b828204905092915050565b6000611a1282611538565b9150611a1d83611538565b9250828203905081811115611a3557611a34611936565b5b92915050565b6000611a4682611538565b9150611a5183611538565b9250828201905080821115611a6957611a68611936565b5b92915050565b600081905092915050565b50565b6000611a8a600083611a6f565b9150611a9582611a7a565b600082019050919050565b6000611aab82611a7d565b9150819050919050565b6000606082019050611aca60008301866118df565b611ad760208301856118df565b611ae4604083018461184d565b949350505050565b6000604082019050611b0160008301856118df565b611b0e602083018461184d565b9392505050565b600081519050611b248161150c565b92915050565b600060208284031215611b4057611b3f6114d0565b5b6000611b4e84828501611b15565b91505092915050565b600082825260208201905092915050565b7f5265656e7472616e637947756172643a207265656e7472616e742063616c6c00600082015250565b6000611b9e601f83611b57565b9150611ba982611b68565b602082019050919050565b60006020820190508181036000830152611bcd81611b91565b905091905056fea2646970667358221220e8b397e3d2c4a45793880219ec653a1f09811a1b6d0c42d25ab99450e0e663f264736f6c63430008130033",
  "devdoc": {
    "kind": "dev",
    "methods": {
      "onERC721Received(address,address,uint256,bytes)": {
        "details": "See {IERC721Receiver-onERC721Received}. Always returns `IERC721Receiver.onERC721Received.selector`."
      }
    },
    "version": 1
  },
  "userdoc": {
    "kind": "user",
    "methods": {},
    "version": 1
  },
  "storageLayout": {
    "storage": [
      {
        "astId": 151,
        "contract": "contracts/NftMarketplace.sol:NftMarketplace",
        "label": "_status",
        "offset": 0,
        "slot": "0",
        "type": "t_uint256"
      },
      {
        "astId": 3293,
        "contract": "contracts/NftMarketplace.sol:NftMarketplace",
        "label": "s_listings",
        "offset": 0,
        "slot": "1",
        "type": "t_mapping(t_address,t_mapping(t_uint256,t_struct(Listing)3286_storage))"
      },
      {
        "astId": 3297,
        "contract": "contracts/NftMarketplace.sol:NftMarketplace",
        "label": "s_proceeds",
        "offset": 0,
        "slot": "2",
        "type": "t_mapping(t_address,t_uint256)"
      },
      {
        "astId": 3299,
        "contract": "contracts/NftMarketplace.sol:NftMarketplace",
        "label": "s_marketplaceFees",
        "offset": 0,
        "slot": "3",
        "type": "t_uint256"
      }
    ],
    "types": {
      "t_address": {
        "encoding": "inplace",
        "label": "address",
        "numberOfBytes": "20"
      },
      "t_mapping(t_address,t_mapping(t_uint256,t_struct(Listing)3286_storage))": {
        "encoding": "mapping",
        "key": "t_address",
        "label": "mapping(address => mapping(uint256 => struct NftMarketplace.Listing))",
        "numberOfBytes": "32",
        "value": "t_mapping(t_uint256,t_struct(Listing)3286_storage)"
      },
      "t_mapping(t_address,t_uint256)": {
        "encoding": "mapping",
        "key": "t_address",
        "label": "mapping(address => uint256)",
        "numberOfBytes": "32",
        "value": "t_uint256"
      },
      "t_mapping(t_uint256,t_struct(Listing)3286_storage)": {
        "encoding": "mapping",
        "key": "t_uint256",
        "label": "mapping(uint256 => struct NftMarketplace.Listing)",
        "numberOfBytes": "32",
        "value": "t_struct(Listing)3286_storage"
      },
      "t_struct(Listing)3286_storage": {
        "encoding": "inplace",
        "label": "struct NftMarketplace.Listing",
        "members": [
          {
            "astId": 3283,
            "contract": "contracts/NftMarketplace.sol:NftMarketplace",
            "label": "seller",
            "offset": 0,
            "slot": "0",
            "type": "t_address"
          },
          {
            "astId": 3285,
            "contract": "contracts/NftMarketplace.sol:NftMarketplace",
            "label": "listPrice",
            "offset": 0,
            "slot": "1",
            "type": "t_uint256"
          }
        ],
        "numberOfBytes": "64"
      },
      "t_uint256": {
        "encoding": "inplace",
        "label": "uint256",
        "numberOfBytes": "32"
      }
    }
  }
}